:020000040800F2
:1000000000000120B9120008D1090008D309000836
:10001000D5090008D7090008D90900080000000028
:10002000000000000000000000000000DB090008E4
:10003000DD09000800000000DF090008E1090008F0
:100040000913000809130008E5090008091300084E
:100050000913000809130008690A00086F0A00085C
:10006000091300080913000809130008F109000822
:10007000FD090008090A0008150A0008210A0008FD
:1000800009130008091300082D0A000809130008C5
:100090000913000809130008750A0008091300086D
:1000A00009130008091300080913000809130008C0
:1000B00009130008091300080913000809130008B0
:1000C00009130008091300080913000809130008A0
:1000D000390A0008450A0008091300080913000836
:1000E0000913000809130008510A00080913000841
:1000F0000913000809130008091300080913000870
:1001000009130008091300085D0A00080913000814
:10011000091300080913000809130008091300084F
:10012000091300080913000809130008091300083F
:0801300009130008091300087F
:1001380010B5054C237833B9044B13B10448AFF319
:1001480000800123237010BD18000020000000006B
:10015800A478000808B5034B1BB103490348AFF363
:10016800008008BD000000001C000020A4780008E2
:10017800034613F8012B002AFBD1181A01387047DF
:1001880053B94AB9002908BF00281CBF4FF0FF31F6
:100198004FF0FF3000F06AB9ADF1080C6DE904CEFC
:1001A80000F006F8DDF804E0DDE9022304B070474A
:1001B8002DE9F047089D0C46002B4ED194468C45FE
:1001C8008646B2FA82F262D94AB1C2F1200391405E
:1001D80020FA03F30CFA02FC194300FA02FE4FEA74
:1001E8001C471FFA8CF6B1FBF7F44FEA1E4307FBD6
:1001F800141143EA014304FB06F199420AD91CEBA6
:10020800030304F1FF3080F01281994240F20F811C
:10021800023C6344591A1FFA8EF3B1FBF7F007FB4F
:10022800101143EA014300FB06F69E420AD91CEB73
:10023800030300F1FF3180F0FC809E4240F2F98018
:10024800634402389B1B40EA044000211DB1D3409F
:100258000022C5E90032BDE8F0878B4205D90DB10F
:10026800C5E9000100210846F5E7B3FA83F1002942
:1002780046D1A34202D39042C0F0F080861A64EBC4
:1002880003030120002DE6D0C5E90063E3E7002A57
:1002980040F09080A1EB0C044FEA1C481FFA8CF741
:1002A8000121B4FBF8F64FEA1E4308FB164443EA63
:1002B800044307FB06F0984208D91CEB030306F138
:1002C800FF3402D2984200F2CD8026461C1A1FFA4B
:1002D8008EF3B4FBF8F008FB104443EA044300FB38
:1002E80007F79F4208D91CEB030300F1FF3402D241
:1002F8009F4200F2B0802046DB1B40EA0640A5E79B
:10030800C1F120068B4022FA06F71F4320FA06FCAB
:1003180004FA01F343EA0C03F44000FA01F8380C3C
:100328004FEA1349B4FBF0FE1FFA87FC00FB1E449A
:1003380049EA04440EFB0CF9A14502FA01F20AD974
:100348003C190EF1FF3A80F08480A14540F281808B
:10035800AEF1020E3C44A4EB09041FFA83F9B4FB86
:10036800F0F300FB134449EA044403FB0CFCA445E6
:1003780007D93C1903F1FF3067D2A44565D9023B80
:100388003C4443EA0E40A0FB0293A4EB0C049C42BD
:10039800CE469C4651D34ED055B1B8EB0E0364EB14
:1003A8000C0404FA06F6CB401E43CC40C5E90064B1
:1003B800002150E7C2F1200320FA03F10CFA02FCF5
:1003C80024FA03F394400C434FEA1C4800FA02FE57
:1003D8001FFA8CF7B3FBF8F008FB1031230C43EA43
:1003E800014300FB07F1994208D91CEB030300F114
:1003F800FF362CD299422AD9023863445B1AA4B238
:10040800B3FBF8F108FB113344EA034401FB07F39B
:10041800A34208D91CEB040401F1FF3613D2A3420E
:1004280011D902396444E41A41EA004139E7044623
:10043800F0E6084606E7C845AED2B9EB020E63EB14
:10044800070C0138A8E73146EDE7034699E730463F
:10045800D4E7D6467FE7634402384DE7064623468D
:1004680008460FE7023E634430E700BF704700BF0D
:1004780030B52A482A4D85B04FF080430024C0E9A2
:1004880000534FF4001C04230125CDE90144C0E9C1
:100498000244C0E904C3C0E90944C0E90C44039418
:1004A80004838576C36180F8204080F82C408463FB
:1004B80080F83C40C46400F065FF08B100F0E6F93C
:1004C8001648039401A9CDE9015401F0FDF808B1DB
:1004D80000F0DCF913480423CDE901030DEB030117
:1004E8000E4801F0F1F808B100F0D0F90E490B48B8
:1004F8000823CDE9011301A901F0E6F808B100F0DD
:10050800C5F90A4A05480C2301A9CDE9012301F0E0
:10051800DBF808B100F0BAF905B030BD940000204E
:1005280000240140020000040800000C1000001024
:1005380030B5054689B01422002103A807F074F9E4
:100548002A68264B9A4246D14FF0B04324481A6E87
:10055800244C42F400721A661A6E02F40072029277
:10056800029ADA6C42F00202DA64DB6C03F00203EE
:10057800019346F21402019B03A90323CDE9032347
:1005880001F0FEFB1849052380204FF48072C4E96E
:100598000402C4E900134FF4806C00232022204693
:1005A800C4E90233C4E906C2236201F00DFA08B1B6
:1005B80000F06CF90B48102101F0D2FB08B100F0F3
:1005C80065F912202C6500220121A56201F06AF963
:1005D800122001F099F909B030BD00BF0024014094
:1005E8000004004834000020080002404FF0B043E7
:1005F80007B59A6C42F004029A649A6C02F00402FD
:100608000192019A9A6C42F001029A649B6C002252
:1006180003F00103114600930B20009B01F042F9FF
:100628000B2001F071F9002211460C2001F03AF973
:100638000C2001F069F9002211460D2001F032F971
:100648000D2001F061F9002211460E2001F02AF96F
:100658000E2001F059F9002202210F2001F022F9A1
:100668000F2003B05DF804EB01F04EB94FF0B04332
:1006780082B0DA6C0243DA64DB6C03400193019BBD
:1006880002B070472DE9F04186B01422002101A87C
:1006980007F0CAF80220FFF7E9FF274E0420FFF70A
:1006A800E5FF0120FFF7E2FF4FF41A410022304630
:1006B80001F086FC01244FF40A430025CDE90134FA
:1006C80001A902233046CDE903534FF0030801F096
:1006D80057FB4FF4041701A94FF09040CDE901876B
:1006E800039401F04DFB4FF4805301A93046CDE946
:1006F8000134CDE9035801F043FB402301A90F4819
:100708000394CDE9013701F03BFBE02301A94FF049
:100718009040CDE90135039401F032FB41F21023FA
:1007280001A94FF09040CDE90135039401F028FB71
:1007380006B0BDE8F08100BF00040048000800488A
:1007480000B59BB04822002108A807F06DF81C22CC
:10075800002101A807F068F801F04CFC4FF0B04206
:100768000120D2F8903023F01803C2F89030D2F864
:10077800003423F4C06343F40073C2F80034D2F8A1
:10078800003403F4C0630093009B2423089381235F
:100798000B930023CDE91003B02208A8CDE912235A
:1007A80001F0A0FD08B172B6FEE74F23CDE9013094
:1007B800CDE9030005900790022101A802F02CF86A
:1007C80008B172B6FEE71BB05DF804FB07B500F090
:1007D80099FDFFF7B5FFFFF755FF05F003FFFFF79A
:1007E80047FE00F0FDFA4FF0B0430221DA6C42F008
:1007F8000102DA64DB6C03F0010300220193062096
:10080800019B01F04FF8062001F07EF8002202213A
:10081800072001F047F8072001F076F800220221AE
:10082800162001F03FF8162001F06EF8034904483D
:10083800052203F05FFE05F0DCFEFCE7F50300206F
:10084800CC020020012808B506D1BDE808400B48B5
:100858004FF4004101F0B9BB022806D106F0A0FA16
:1008680058B9BDE8084006F07FBA402804D106F020
:1008780097FA10B90120F4E700BF08BD000400484A
:10088800014B01221A607047F800002072B6FEE79B
:1008980000B58DB02C22002101A806F0C5FF17482D
:1008A800174B03601F2383604FF080420023C0E989
:1008B8000433C0E9072383614FF48073436202F075
:1008C8006BFA08B1FFF7E2FF0C4802F091FB08B1A0
:1008D800FFF7DCFF4FF00053002207930748089208
:1008E8004FF4807301A9029206920B9302F0B4FAB6
:1008F80008B1FFF7CBFF0DB05DF804FBFC0000204A
:100908000028004010B5044690B03822002102A803
:1009180006F08AFF2268194B9A422CD14FF4803393
:10092800029302A84FF480730F9302F0B3F808B152
:10093800FFF7ACFF4FF0B0430220D3F8902042F409
:100948000042C3F890209A6D42F480629A659B6DCC
:10095800002203F4806311460193019B00F0A2FF7B
:10096800022000F0D1FF00222A20114600F09AFF51
:100978002A2000F0C9FF10B010BD00BF00280040B9
:100988007047000008B500F0D3FC044B0120C3F801
:100998008800BDE8084001F085BB00BF000400588E
:1009A80000F0CDBC08B500F0CAFCBDE8084000F076
:1009B80021BC08B500F0BCFCBDE8084001210020BE
:1009C80001F020BB70477047FEE7FEE7FEE7FEE751
:1009D800FEE770477047704770470000014802F013
:1009E8002DBB00BFFC000020014801F063B900BF27
:1009F80034000020014801F05DB900BF6C020020FE
:100A0800014801F057B900BF0C020020014801F06D
:100A180051B900BF4C010020014801F04BB900BF9B
:100A2800AC010020014800F0AFBD00BF94000020D9
:100A3800014802F0C5BE00BF60030020014802F073
:100A4800BFBE00BFCC020020014802F02BB900BF96
:100A5800FC000020014802F01ABD00BF340100204C
:100A6800012001F0BBBA022001F0B8BA402001F021
:100A7800B5BA0000054808B50823036002F024FB56
:100A880018B1BDE80840FFF701BF08BD34010020D8
:100A98004FF0B04307B55A6E42F001025A665B6EDA
:100AA800002203F00103019311463220019B00F05C
:100AB800F9FE322003B05DF804EB00F025BF00001A
:100AC8000CB407B5054A05AB1021019306F0FEF9F1
:100AD80003B05DF804EB02B0704700BF047900086A
:100AE80030B585B0044602A80D4606F0C9F9BDF92F
:100AF8000C30064A00931021029B2046FFF7E0FFC6
:100B08002046FFF735FB288005B030BD0479000882
:100B18004FF0B04210B5936823F40043936006F099
:100B2800C3FB0C4B01241C7000F032F806F050FD9A
:100B3800094806F067FD022006F06AFD06F03EF956
:100B48002146204606F05AF921462046BDE81040C5
:100B580006F03EB940010020E90A000806F064B931
:100B68000121022006F034B90021022006F030B934
:100B780000207047024B187808B100F06DB8704734
:100B88004001002082B00190019802B000F000B945
:100B980070B586B000F0DAFB00F0E0FB00F0E6FB91
:100BA800012302930323049300244FF0B0430394DA
:100BB8000594DA6C0B4D42F00202DA64DB6C03F048
:100BC800020300934FF4805601A92846009B019622
:100BD80001F0D6F822463146284601F0F1F906B070
:100BE80070BD00BF0004004870470000014B186842
:100BF800704700BF440100200320704708B5014634
:100C08004FF47A7200238002890DFFF7B9FA08BD04
:100C18004FF47A73A0FB0303800A40EA83507047BD
:100C2800034B98689A689042FBD1C043704700BF55
:100C38000028004008B5FFF7F3FF014B186008BD16
:100C48004401002008B5FFF7EBFF024B1B68C01AF0
:100C580008BD00BF44010020024B187808B1FFF717
:100C6800DFBF70474801002010B5074B074C012231
:100C7800DA654FF48071204601F0DAFF4FF0FF3358
:100C88002363002010BD00BF00280040FC000020A6
:100C980002460021014802F0E2B900BFFC00002032
:100CA80002460121014802F0DAB900BFFC00002029
:100CB80010B58CB02C220021044601A806F0B4FD22
:100CC800FFF7D2FF0C4B0D481B681C440023089308
:100CD80006934FF00053E443079301224FF48073C7
:100CE80001A902940B9302F0B7F808B1FFF7CEFD03
:100CF80000200CB010BD00BF44010020FC00002003
:100D080038B50546FFF78CFF02210446074802F074
:100D1800ADF9C4F309024FF47A71A2FB0121920ADA
:100D2800A30A2A8043EA805038BD00BFFC00002097
:100D38000148002102F09AB9FC0000200148012175
:100D480002F094B9FC000020F8B50F4D2E78CEB90A
:100D58000E4C4FF0FF372763FFF79AFDFFF784FF2C
:100D68004FF48071204601F063FF2046276302F0AC
:100D780021F932462046022102F071F9FFF75AFFA5
:100D880001232B700020F8BD48010020FC00002042
:100D9800014610B54FF47A7200238002890DFFF7DF
:100DA800EFF90146FFF73CFF0446FFF739FF031B45
:100DB8008B4200D310BD00BFF7E706F07DBB0000F3
:100DC80010B5064C0221204602F050F90221421CBF
:100DD8002046BDE8104002F042B900BFFC000020E8
:100DE8001648174A08B54FF4E133C0E90023002339
:100DF8000C22C0E90233C0E90523C0E90733C0E982
:100E08000933036103F0C1FA08B1FFF73FFD0B484E
:100E1800002103F04DFC08B1FFF738FD0748002119
:100E280003F066FC08B1FFF731FD044803F025FC28
:100E380018B1BDE80840FFF729BD08BD60030020D0
:100E4800003801401648174A08B54FF4E133C0E9A5
:100E5800002300230C22C0E90233C0E90523C0E9BE
:100E68000733C0E90933036103F08FFA08B1FFF7CC
:100E78000DFD0B48002103F01BFC08B1FFF706FD30
:100E88000748002103F034FC08B1FFF7FFFC0448D1
:100E980003F0D3FB18B1BDE80840FFF7F7BC08BD65
:100EA800CC0200200044004070B5142298B00546DA
:100EB80000210DEB020006F0B7FC382200210AA839
:100EC80006F0B2FC2B68754A934274D101224FF4A4
:100ED80040330AA8CDE90A2301F0DCFD08B1FFF789
:100EE800D5FC4FF0B0434FF0C00C1A6E6C486D4CF7
:100EF80042F480421A661A6E02F480420292029A02
:100F0800DA6C42F00202DA64DB6C03F0020301934C
:100F1800019B02230026CDE905C305A907230993F0
:100F2800CDE9076600F02CFFDFF87CE1A66112230B
:100F3800C4E900E31023C4E902368023C4E9043677
:100F480020462023C4E9073600F03EFD08B1FFF72C
:100F58009DFC5448102100F003FF08B1FFF796FCF0
:100F6800524EEC67A562524C11238022C4E90063FB
:100F78000023C4E9042320462022C4E90233C4E93B
:100F88000723A36100F020FD08B1FFF77FFC484864
:100F9800102100F0E5FE08B1FFF778FC2420C5F821
:100FA800804000220121A56200F07CFC242000F092
:100FB800ABFC18B070BD3F4A9342FAD102230A93A2
:100FC8000AA83D4B0C9301F065FD08B1FFF75EFCE4
:100FD8004FF0B0430C219A6D384C42F400329A65B8
:100FE8009A6D02F400320492049ADA6C42F001021B
:100FF800DA64DB6C03F001030393039B02230026EE
:10100800CDE905130323CDE907634FF0904007238B
:1010180005A9099300F0B4FE294826621423C4E9FF
:1010280000031023C4E9023620468023C4E90436AD
:10103800C4E9066600F0C8FC08B1FFF727FC1F48A2
:10104800102100F08DFE08B1FFF720FC1D4AEC6767
:10105800A5621D4C1323C4E90023204600238022E7
:10106800C4E90233C4E90423C4E90633236200F067
:10107800ABFC08B1FFF70AFC1348102100F070FE22
:1010880008B1FFF703FC2520C5F8804000220121A4
:10109800A56200F007FC252089E700BF0038014061
:1010A800000400486C0200201C000240300002408E
:1010B8000C0200200044004004000C00AC01002099
:1010C80058000240440002404C0100200368194ABD
:1010D800934210B5044615D14FF0B042C021136EAB
:1010E800154823F48043136600F0F6FEE06F00F025
:1010F800DDFCD4F8800000F0D9FC2420BDE81040C5
:1011080000F010BC0D4A934213D14FF0B0420C21AD
:10111800936D23F4003393654FF0904000F0DCFEAC
:10112800E06F00F0C3FCD4F8800000F0BFFC25207D
:10113800E4E710BD003801400004004800440040C6
:1011480008B50A460146024802F09EFA002008BD8A
:10115800CC02002013B54FF400130F4C009302ABE0
:1011680013E90600204603F00CFA2368DA69D10374
:10117800FCD4DA695202FCD59A68074842F4800226
:101188009A6003F044FA05490348012203F0B2F9D2
:10119800002002B010BD00BFCC02002000040020D7
:1011A80008B5074B1860FFF721FAFFF74BFE054A11
:1011B800D2F8803043F00063C2F88030002008BDC8
:1011C800FC0300200008005808B54FF0B043084859
:1011D8009A6B42F400329A639A6B22F400329A6353
:1011E800FFF774FF0F2000F09DFB002008BD00BF33
:1011F800CC02002008B5074803F0C7F808B1FFF78C
:1012080045FB054800F0E0FB18B1BDE80840FFF7D2
:101218003DBB08BDCC020020AC0100200268044B95
:101228009A4203D1034B00201B681847704700BF40
:1012380000440040FC0300200268164B9A4273B534
:10124800044625D1144E154B009601220021022098
:1012580006F028FA12490322304606F0D3FA05466A
:1012680070B910484FF4004100F0AFFE0E4AF37811
:1012780013702946009301220C4B022006F012FA43
:1012880005490522204602B0BDE8704003F032B996
:1012980002B070BD00440040F5030020F07900085A
:1012A800057A000800040048F4030020097A0008C1
:1012B8000D488546FFF798FC0C480D490D4A002358
:1012C80002E0D458C4500433C4188C42F9D30A4AF3
:1012D8000A4C002301E013600432A242FBD306F05B
:1012E800ABFAFFF773FAFEE70000012000000020C8
:1012F80018000020A47F000818000020B009002072
:10130800FEE7000010B5032000F0BAFA00F0DAFF9B
:10131800064B18600F20FFF72BFC044618B9FFF79F
:1013280052FB204610BD0124FBE700BF000000204F
:101338004FF0E022136923F00203136170474FF066
:10134800E022136943F0020313617047024A5368AD
:1013580023F0010353607047002004E0024A5368F9
:1013680023F0020353607047002004E0024A5368E8
:1013780023F0040353607047002004E08068C0F342
:1013880080007047F7B5002301930446002800F059
:10139800E980856D25B9FFF7CBF8E56584F85450E9
:1013A80023689A68D00040F1A1809A68D10000F1C2
:1013B800B480A26D42F01002A265E26D42F0010213
:1013C800E26501251846FFF7D9FFA26D02F0100269
:1013D800024340F0C980A26D206922F4817242F074
:1013E8000202A2659A68D2075DD4226BA67E94F8A1
:1013F8002CC0003A18BF01221703D4E902120A438D
:10140800217E42EA8132617E42EAC13242EA4632B4
:10141800002842EA4C02B4BF20F000414FF400110A
:101428003A430A4394F82010012903D1002E76D1BB
:1014380042F48032616A21B1A66A01F4E071314355
:101448000A43D968E66C21F4FE3121F4FF71114397
:10145800D96094F83C206168012A01F0404C4CEABC
:10146800060609D1D4E910273A433243A66C324321
:1014780042EA0C0242F001061F693E4A3A403243F2
:101488001A6121F00042B2F1804F0CD0B1F1004F47
:1014980009D0394ED6F8082701F4701122F47012D9
:1014A8000A43C6F808275A69666BA16B22F007023F
:1014B80032435A615A6922F0700242EA01125A61B3
:1014C800002835D19A6A62F00F029A625B6903F0CC
:1014D80007039E423CD10023E365A36D23F0030379
:1014E80043F00103A365284603B0F0BD9A68234979
:1014F80022F0104222F0170242F080529A60204AED
:101508001268B2FBF1F2013252000192019A002AEC
:101518003FF44BAF019A013AF7E7002552E7A16D76
:1015280041F02001A165E16D41F00101E16581E72C
:10153800B0F5001FCAD19A6AE269013A92006FF0C9
:101548000F0102F01C0201FA02F2216E0A43BCE705
:10155800A36D23F0120343F01003A365E36D43F07A
:101568000103E3650125BEE7A36D43F01003A365FE
:10157800F8E700BF02FCFF1F00200140400D0300F8
:101588000000002070477047036870B51E685D68EA
:101598000446B0070ED5A9070CD5A36DDA065EBFC1
:1015A800A36D43F40063A365204600F067F9236840
:1015B80002221A60730701D5680703D4310729D5B9
:1015C8002A0727D5A36DDB065EBFA36D43F400731E
:1015D800A3652368DA6812F4406F15D1A27E9AB920
:1015E8001A68100710D51846FFF7C8FE002861D101
:1015F8005A6822F00C025A60A36D23F4807323F01A
:10160800010343F00103A3652046FFF739F9236876
:101618000C221A6031060BD52A0609D5A36D43F4AE
:101628008033A3652046FFF7ADFF236880221A6048
:10163800F3050CD5E8050AD5A36D43F40033A3657B
:10164800204600F019F923684FF480721A60B1053A
:101658000CD5AA050AD5A36D43F48023A3652046BB
:1016680000F00BF923684FF400721A60F30615D5E1
:10167800E80613D5236B1BB12368DB6899070AD0EA
:10168800A36D43F48063A365E36D43F00203E36550
:101698002046FFF778FF236810221A60B20408D5A5
:1016A800AB0406D5204600F0EAF823684FF4005250
:1016B8001A6070BDA36D43F02003A365E36D43F08A
:1016C8000103E365A0E70000F7B50023019390F854
:1016D8005430012B044600F0C080056802690123DC
:1016E80080F854302846FFF749FE002840F0AF80C4
:1016F800D1E90030022822F004027ED0B2F1004F76
:10170800C3F3110E35D1AA6A42EA0E02AA628A68A8
:10171800686902EA032222F07C4222F0FF0220EAF2
:1017280003210A43002B6A611DDA4D4A4D4DD2F858
:101738000817AB4201F0E07043D10D0213D4D2F880
:10174800083723F0E073034343F40003C2F8083773
:10175800454B1A68454BB2FBF3F20C2302FB0333EB
:101768000193019B53BB0020002384F8543003B03D
:10177800F0BD226E00F01F074FF00F0C0CFA07FCAB
:101788006FEA0C0622EA0C0CBEF1000F11D1C3F36C
:101798008462BA4042EA0C0222668008E26901309B
:1017A8009042B4D8A86AC3F38362BA400640324371
:1017B800ACE793FAA3F2B2FA82F2EAE7019B013BA3
:1017C800CEE72B4DAB420BD1C901CCD4D2F80837A8
:1017D80023F0E073034343F08073C2F80837C2E78D
:1017E800244DAB42BFD14B02BDD4D2F8083723F009
:1017F800E073034343F48003EFE7B2F1004F01BF06
:10180800AA6AC3F311018A43AA62002BABDA15480E
:1018180013498342D1F8082709D1D1F8083702F0D3
:10182800A07223F0E0731A43C1F808279BE7104819
:10183800834204D1D1F8083702F44002F1E70D4899
:10184800834290D1D1F8083702F0C072E9E7A26D5F
:1018580042F02002A265184686E7022087E700BF0B
:1018680000200140001000B000000020400D0300DF
:10187800004000B8002000B47047704770477047B8
:101888000749CA6822F4E0620302120403F4E06321
:10189800120C134343F0BF6343F40033CB6070472B
:1018A80000ED00E0164B30B5DC68C4F30224C4F147
:1018B8000703251D042B28BF0423062D4FF0FF35F1
:1018C8008CBF033C002405FA03F321EA0303A54077
:1018D80022EA0502A340002843EA0203ACBF00F154
:1018E8006040084A4FEA0313B8BF00F00F00DBB2AC
:1018F800AABF00F56140135480F8003330BD00BF23
:1019080000ED00E014ED00E0002807DB044A41097F
:10191800012300F01F00834042F82130704700BFC8
:1019280000E100E000280CDB4309064900F01F0035
:1019380020330122824041F82320BFF34F8FBFF3A9
:101948006F8F704700E100E070B5D0E9134565601E
:10195800446D14B1D0E916456560D0E9105404F01F
:101968001C060124B4406C60046863608368102B13
:101978000BBFA260A160E160E26070BD0268416CCB
:10198800D3B210B5083B1424B3FBF4F30B4CA242BA
:1019980088BF0B4A21F0030199BF01F1804202F58B
:1019A8000232521807338264064AC26403F01F03E6
:1019B800012202FA03F3036510BD00BF07040240C9
:1019C8001C0802408008024038B500285CD0026834
:1019D8002E4B9A424FF014014AD82D4B1344B3FBB7
:1019E800F1F32C499B00C0E91013022380F825303D
:1019F8001368056923F4FF4323F070031360D0E9EB
:101A0800024323432B43456911682B4385692B43C4
:101A1800C5692B43056A2B430B431360FFF7AEFFE1
:101A2800B4F5804F04BF002343604368816C03F022
:101A38007F020A60D0E91314013B032B4C601ED8C7
:101A4800154B1649816513449B000121013A01FA9F
:101A580002F200214365C2651960114B5A640023E4
:101A68000122C36380F8243080F82520184638BD49
:101A78000C4B1344B3FBF1F30B499B00B3E7002372
:101A8800C0E91533C365EAE70120F0E7070402401F
:101A9800F8FFFDBF000002403F82001040090240ED
:101AA80000090240F8FBFDBF0004024038B50028D9
:101AB80041D00268136823F0010313601F4B9A4258
:101AC8004FF0140130D81E4B1344B3FBF1F31D49FA
:101AD8009B00C0E91013012403F01C0304FA03F36C
:101AE800002515604B60FFF749FF836C41681D6056
:101AF800D0E913325A604A1E032A06D8124B0B4407
:101B08009B0094401D60114B5C640023C363C0E9D3
:101B18001533C0E90B33C0E90D33C36580F82530B0
:101B280080F82430184638BD094B1344B3FBF1F351
:101B380008499B00CDE70120F5E700BF07040240F4
:101B4800F8FFFDBF000002403F820010000902407C
:101B5800F8FBFDBF0004024070B590F82450012D39
:101B680004463BD090F825600125AE4280F8245009
:101B78004FF000062CD1022580F825500568C66371
:101B88002E6826F001062E60FFF7DEFE036BBBB160
:101B98002B6843F00E032B60A36C1A68D20342BF74
:101BA8001A6842F480721A60636D1BB11A6842F4B5
:101BB80080721A602B6843F001032B60002070BD0F
:101BC8002B6823F004032B602B6843F00A03E2E739
:101BD8008023C36380F824602846F0E70220EEE7FC
:101BE800034640B190F82520022A06D00422C26399
:101BF800002280F82420012070470268806C116858
:101C080021F00E011160016821F4807101601168F2
:101C180021F001011160D3E9100202F01C01012238
:101C28008A404260D3E9132151605A6D32B111687C
:101C380021F480711160D3E916215160012200203E
:101C480083F8252083F82400704708B590F82530DC
:101C5800022B03D00423C363012008BD03681A685C
:101C680022F00E021A601A6822F001021A60826CD1
:101C7800136823F480731360D0E9101303F01C0277
:101C8800012393404B60D0E913325A60436D33B15E
:101C98001A6822F480721A60D0E916325A60012359
:101CA80080F82530002380F82430836B03B19847EF
:101CB8000020D2E770B4426C046C036826681D6883
:101CC80002F01C020421914031420FD015F0040F9C
:101CD8000CD01A6892065EBF1A6822F004021A60D5
:101CE800036B6160002B33D070BC18470221914010
:101CF800314217D015F0020F14D01A68940606D492
:101D08001A6822F00A021A60012280F82520114A76
:101D180093428CBF104B114B5960002380F824303C
:101D2800C36ADFE708219140314211D029070FD556
:101D3800196821F00E011960012303FA02F26260AA
:101D4800C36380F82530002380F82430436BC9E74B
:101D580070BC70478000024000040240000002404E
:101D680060B10268C806136805D5C9024CBF43F4C0
:101D7800801323F4801313600020704701207047FC
:101D88002DE9F04F524C00234FF00F090A6832FA40
:101D980003F501D1BDE8F08F012505FA03F818EA2B
:101DA800020200F08E804E68032706F003054FEA12
:101DB800430E07FA0EFC6F1E012F6FEA0C0C32D887
:101DC800876807EA0C0ACF6807FA0EF747EA0A0796
:101DD8008760476827EA0808C6F300179F4047EA64
:101DE80008074760C76807EA0C088F6807FA0EF704
:101DF80047EA0807022DC76017D14FEAD30800EB5E
:101E0800880803F0070AD8F820704FEA8A0A09FA06
:101E18000AFB27EA0B0B0F6907FA0AF747EA0B07D1
:101E2800C8F8207001E0032DDCD1076805FA0EF52B
:101E380007EA0C073D4316F4403F056041D023F004
:101E4800030707F1804707F5803703F0030CBD68E7
:101E58004FEA8C0C4FF0070E0EFA0CFEB0F1904FC3
:101E680025EA0E0E2FD01B4DA8422ED005F5806511
:101E7800A84214BF0725022505FA0CF545EA0E0508
:101E8800BD602568D74316F4801F0CBF3D4015433D
:101E98002560656816F4001F0CBF3D40154365605A
:101EA800D4F8805016F4803F0CBF3D401543C4F869
:101EB8008050D4F88450B60354BF3D401543C4F84D
:101EC8008450013362E70025D6E70125D4E700BF37
:101ED8000008005800040048374A2DE9F04F002355
:101EE8004FF0010A4FF0070B4FF00F0931FA03F4D6
:101EF80001D1BDE8F08F0AFA03FC1CEA010654D0B0
:101F080023F0030404F1804404F5803403F003074C
:101F1800A568BF000BFA07F8B0F1904F08EA050E64
:101F280045D0264DA84244D005F58065A8420CBF8F
:101F380002250725BD40754517D1D2F8805025EAFE
:101F48000605C2F88050D2F8845025EA0605C2F882
:101F58008450156825EA06051560556825EA0605C2
:101F68005560A56825EA0805A560056803265C0094
:101F780006FA04F423FA06F6254300EB8606056004
:101F880003F00705376AAD0009FA05F527EA0507E2
:101F98003762856825EA04058560456825EA0C05E9
:101FA8004560C56825EA0404C46001339EE700253E
:101FB800C0E70125BEE700BF00080058000400483C
:101FC8000AB18161704781627047436901EA03027F
:101FD80021EA030141EA024181617047044AD1685C
:101FE800014208B502D0D060FEF72CFC08BD00BF46
:101FF80000080058024A136843F48073136070475E
:10200800000400580D4B10B55B690C4628B99A05B9
:1020180007D500F027F820B110BD9B0501D400F0CA
:1020280019F8074A1369012C23F00403136101D13D
:1020380030BFF1E740BF20BF20BFEDE700040058E4
:1020480000ED00E0024B186800F4C060704700BF64
:1020580000040058024A136843F480431360704731
:10206800000400580C4A136823F4804313600B4B98
:102078001B6832214B430A49B3FBF1F351698905C7
:1020880000D533B9536913F4007F14BF032000202F
:102098007047013BF2E700BF000400580000002031
:1020A80040420F000B4A136823F0070343F0020372
:1020B8001360094B1A69012842F004021A6105D11C
:1020C80030BF1A6922F004021A61704740BF20BF6E
:1020D80020BFF6E70004005800ED00E04FF0B043E1
:1020E8001868C0F3404070474FF0B0431868C0F319
:1020F800400070474FF0B042536823F47F4343EAEF
:102108000023536070474FF0B0431868C0F3406035
:10211800704700007FB54FF0B0432C4AD3F8083120
:10212800C0F3031003F00F0352F82040284A52F876
:102138002330B4FBF3F4FFF785FF264B054693E8FD
:102148000700B5F5007F04AB03E9070010D0224B68
:102158009C4218D303F5B70303F67F539C4229D951
:1021680003F5741303F510639C4225D802230BE092
:102178001A4B9C4207D91A4B9C421BD903F53703CB
:1021880003F5D853F0E7002304AA02EB830353F8BE
:102198000C4C144D2B6823F0070323432B60FEF7E8
:1021A800E9FC06462B6803F007039C4206D1002091
:1021B80004B070BD0123E7E70024EAE7FEF7DAFC84
:1021C800801B0228EED90320F2E700BF107900082F
:1021D80070790008BC780008C0CF6A00BFEA210106
:1021E8003F933402004000584FF0B04310B59A684E
:1021F800D96812F00C0205D00C2A4AD101F0030369
:10220800012B51D14FF0B0412B480B6813F0080354
:1022180006D00B6813F0080337D1D1F8941007E003
:102228000C68240756BFD1F894300968C3F3032318
:1022380050F82330002A0CBF184600204FF0B04158
:102248008A6802F00C020C2A1ED1CA6802F0030246
:10225800022A2ED0032A06D10B68184A13F4801FCD
:10226800174B18BF13464FF0B042D068D168D268F8
:10227800C0F306205843C1F302130133B0FBF3F057
:10228800530F0133B0FBF3F010BD0B68C3F3031316
:10229800CEE7042A05D0082A06D11B6813F4801358
:1022A80005D006480023C9E700231846C6E70448B6
:1022B800C4E7024BD7E700BF107900080024F400F8
:1022C8000048E80108B5FFF78FFF4FF0B043044A14
:1022D8009B68C3F3031352F82330B0FBF3F008BD37
:1022E800707900082DE9F0410446002853D04FF0DA
:1022F800B0439D68DE6803689B0605F00C0506F090
:10230800030668D5026A1DB10C2D46D1012E44D1B1
:10231800002A40D04FF0B043A16A1A68170756BF89
:10232800D3F894301B681B0903F0F00399421FD9B6
:102338000846FFF7EFFE00282DD14FF0B042136892
:1023480043F0080313601368A16A23F0F0030B43FA
:102358001360606AFFF7CEFEFFF7B4FFAB4B18605F
:10236800AB4B1868FEF704FC002834D0BDE8F081B8
:102378004FF0B042136843F008031360136823F06A
:10238800F0030B431360606AFFF7B4FE0846FFF7DB
:10239800C1FE0028E0D00120E8E74FF0B043002A52
:1023A80054D01A6842F001021A60FEF7E3FB0746B0
:1023B800FFF79AFE002842D04FF0B042136843F06E
:1023C800080313601368A16A23F0F0030B4313603A
:1023D800606AFFF78FFE2368D80748D423689907F7
:1023E80000F18C8023681E0740F1FA80A3694FF042
:1023F800B046002B00F0E180D6F89430E16903F094
:102408001002914200F0C48003F00302022AC2D0F5
:10241800D80740F1B380D6F8943023F00103C6F80A
:102428009430FEF7A7FB0746D6F89430990740F199
:10243800A580FEF79FFBC31B112BF5D904E0FEF71F
:1024480099FBC01B0228B3D903208FE71A6822F032
:1024580001021A60FEF78EFB0746FFF745FE0028CB
:10246800B9D0FEF787FBC01B0228F6D9ECE7082D88
:1024780003D00C2D05D1032E03D16368002BADD1F9
:1024880089E74FF0B043A1681A6822F480120A4322
:102498001A606268B2F5803F10D11A6842F480323F
:1024A8001A60FEF767FB0746FFF718FE002895D16C
:1024B800FEF760FBC01B6428F6D9C5E7B2F5041F18
:1024C80004D11A6842F400121A60E6E7196821F488
:1024D80080311960196821F400111960002AE0D1CF
:1024E800FEF748FB0746FFF7F9FD00283FF476AFF3
:1024F800FEF740FBC01B6428F5D9A5E7042D236926
:1025080003D00C2D0ED1022E0CD1002B3FF443AF7B
:102518004FF0B0426169536823F0FE4343EA016318
:1025280053605FE74FF0B046BBB1336843F4807344
:102538003360FEF71FFB074633685A0505D4FEF7DC
:1025480019FBC31B022BF7D97EE77368626923F076
:10255800FE4343EA0263736044E7336823F48073FD
:102568003360FEF707FB074633685B057FF53AAF34
:10257800FEF700FBC31B022BF6D965E74FF0B0420C
:10258800E169D2F8943023F010030B43C2F8943079
:102598004FF0B047D7F8943043F00103C7F89430B0
:1025A800FEF7E8FA0646D7F894309A0718D4FEF7EB
:1025B800E1FA831B112BF6D946E7D6F8943023F0BD
:1025C8000103C6F89430FEF7D5FA0746D6F89430DA
:1025D8009B0705D5FEF7CEFAC31B112BF6D933E7B7
:1025E8002368580754D50B4F3B68D90514D4FFF717
:1025F80001FDFEF7BFFA06463B68DA050CD4FEF784
:10260800B9FA831B022BF7D91EE700BF0000002090
:102618000400002000040058E3684FF0B046002B87
:1026280058D023F08003052B02BFD6F8903043F032
:102638000403C6F890304FF0B046FEF79BFAD6F880
:10264800903043F001030746C6F8903041F28838CD
:10265800D6F890309B0705D4FEF78CFAC31B434588
:10266800F6D9F1E6E36823F00403812B1BD1FEF7CA
:1026780081FAD6F8903043F08003C6F890300746C8
:102688004FF0B04641F28838D6F89030180504D596
:10269800E36A002B4AD1002068E6FEF76BFAC01BFC
:1026A8004045F1D9D0E6FEF765FAD6F8903023F028
:1026B8008003C6F8903007464FF0B04641F288389C
:1026C800D6F890301905E3D5FEF754FAC01B4045FB
:1026D800F6D9B9E6FEF74EFAD6F8903023F0800323
:1026E8000746C6F8903041F28838D6F890301A0577
:1026F80016D4FEF73FFAD6F8903023F00103C6F857
:10270800903007464FF0B04841F28836D8F89030FC
:102718009B07BDD5FEF72EFAC31BB342F6D993E645
:10272800FEF728FAC01B4045DFD98DE60C2D4ED0A8
:10273800022B4FF0B0431A6822F080721A6033D12E
:10274800FEF718FA0546FFF7DEFC38BBD4E90C3172
:102758004FF0B0420B43D0682D4901400B43E16B69
:102768000B43216C0B43616C0B43A16B43EA0123C0
:10277800D360136843F080731360D36843F08053C9
:10278800D360FEF7F7F90446FFF7BDFC002882D1B5
:10279800FEF7F0F9001B0A28F6D955E6FEF7EAF924
:1027A800401B0A28CFD94FE6FEF7E4F90446FFF7A5
:1027B800AAFC30B94FF0B042164BD1680B40D36039
:1027C80069E7FEF7D7F9001B0A28F0D93CE6012B88
:1027D8003FF4E1AD4FF0B043D868236B00F003023B
:1027E8009A427FF4D8AD626B00F0700393427FF495
:1027F800D2ADA26B00F4FE43B3EB022F7FF4CBAD56
:10280800636C00F06040C01A18BF0120AEE500BF3D
:102818008C80C111FCFFFEEE2DE9F0410D46044607
:1028280010B90120BDE8F081754E336803F0070345
:102838008B4216D32368980727D54FF0B047A26874
:10284800BB6823F0F0031343BB60FEF793F9064619
:10285800BB68D90319D4FEF78DF9831B022BF7D96E
:1028680011E0336823F007030B433360FEF782F966
:102878000746336803F00703AB42DBD0FEF77AF96B
:10288800C01B0228F5D90320CCE723689A0616D581
:102898004FF0B0476269D7F8083123F0F0031343CB
:1028A800C7F80831FEF766F90646D7F808319B03E2
:1028B80005D4FEF75FF9831B022BF6D9E3E72368FB
:1028C800580617D54FF0B047A269D7F8083123F05A
:1028D8000F0343EA1213C7F80831FEF74BF906460F
:1028E800D7F80831D90305D4FEF744F9831B022B26
:1028F800F6D9C8E723685A0713D54FF0B047E268FE
:10290800BB6823F4E0631343BB60FEF733F9064664
:10291800BB689B0305D4FEF72DF9831B022BF7D95F
:10292800B1E72368180714D54FF0B0472269BB6890
:1029380023F4605343EAC203BB60FEF71BF9064663
:10294800BB68590305D4FEF715F9831B022BF7D989
:1029580099E72368DA070FD4294C236803F00703A3
:10296800AB4239D8FFF7AEFC264B1860264BBDE8C2
:10297800F0411868FEF7FCB86268022A1DD1FFF71B
:10298800ADFB00283FF44DAF4FF0B04641F2883818
:10299800B36823F003031343B360FEF7EBF807466D
:1029A800B368626803F00C03B3EB820FD4D0FEF770
:1029B800E1F8C01B4045F3D965E7032A02D1FFF7C8
:1029C800A2FBDEE712B9FFF78FFBDAE74FF0B0435F
:1029D8001B685B05D8D424E7236823F007032B433F
:1029E8002360FEF7C7F80646236803F00703AB42E7
:1029F800B8D0FEF7BFF8801B0228F5D943E700BF1F
:102A080000400058000000200400002008B5FFF72F
:102A180059FC4FF0B043044A9B68C3F3022352F8B1
:102A28002330D84008BD00BF5079000808B5FFF72B
:102A380049FC4FF0B043044A9B68C3F3C22352F8E1
:102A48002330D84008BD00BF507900084FF0B0438C
:102A5800D3F89000C0F3400070474FF0B04102092E
:102A6800D1F8883002F47F22000123EA020300F43F
:102A78007F200343C1F8883070474FF0B041020C03
:102A8800D1F88830120423EA020343EA0040C1F86F
:102A9800880070470368DA0370B5044639D5FFF734
:102AA800A9FAFEF767F8614E05463368DB0532D5AB
:102AB8004FF0B043616BD3F8902002F4407291421A
:102AC8001DD0D3F89010D3F8902042F48032C3F888
:102AD8009020D3F8902021F4407022F480328D07A2
:102AE800C3F89020C3F8900009D5FEF743F841F2E7
:102AF80088360546FFF7AAFF012840F090804FF07E
:102B0800B042616BD2F8903023F440730B43C2F8A3
:102B18009030002605E0FEF72DF8401B0228C4D9A6
:102B280003262568E8070AD54FF0B0416268D1F856
:102B3800883023EA124392B21343C1F88830A907B8
:102B48000AD54FF0B041A268D1F8883023EA124381
:102B580092B21343C1F88830AA0609D54FF0B042A3
:102B68002169D2F8883023F440630B43C2F88830D7
:102B7800AB0502D5206AFFF780FF680502D5606AB9
:102B8800FFF77BFF290502D5A06AFFF776FF6A06E3
:102B980002D56069FFF761FF2B0602D5A069FFF730
:102BA8005CFFE80502D5E069FFF757FFE90610D595
:102BB8004FF0B042E168D2F8883023F440730B43F9
:102BC800C2F88830B1F5807F02BFD36843F08073C4
:102BD800D3602A040ED54FF0B042216BD2F888306A
:102BE80023F040430B43C2F8883019B9D36843F047
:102BF8008073D3606B0410D54FF0B042E16AD2F80D
:102C0800883023F040530B43B1F1005FC2F888309D
:102C180003D1D36843F48033D360304670BDFDF7E9
:102C2800A9FF401BB0427FF665AF79E70004005862
:102C380030B590F82C30012B02464FF0020022D01C
:102C4800174B82F82D00CA24012582F82C505C62AB
:102C580053245C62B1F5807F146B996914D121F417
:102C680088519961596C24F0010421F0004159649C
:102C78001463DD650A4BFF2159620020012382F8A5
:102C88002D3082F82C0030BD21F408519961D96C9F
:102C980024F0020421F00041D9641463D865E9E7FF
:102CA8000028004070B50B4E036B756D1D40EA0798
:102CB800044603D50123F365FEF77FF8AB0704D577
:102CC8000223F365204600F0C9F9012384F82D306A
:102CD80070BD00BF0028004038B50A4CE36823F0F7
:102CE8002003E360FDF746FF0546E3689B0601D530
:102CF800002038BDFDF73EFF401BB0F57A7FF4D9C0
:102D08000320F6E700280040F8B5114DEC6814F0F0
:102D1800400406461AD1EB6843F08003EB60FDF7E8
:102D280029FF23460746EC6814F0400401D1032B21
:102D380001D11846F8BDFDF71DFFC01BB0F57A7F1D
:102D4800234684BF032386F82D30ECE70023F0E701
:102D58000028004038B50F4CE36823F08003E36097
:102D6800A3699B06054606D4FFF7B6FF10B10320FA
:102D780085F82D0038BDA36923F02003A361FFF770
:102D8800ABFF10B1032085F82D00A36943F02003A1
:102D9800A361EFE70028004038B5044600284BD06F
:102DA80090F82D3003F0FF021BB980F82C20FDF7B6
:102DB800A9FD0223214D84F82D30EB68DB0636D4BB
:102DC800CA236B6253236B622046FFF79DFF10B145
:102DD800FF236B6238BDAB6923F08E6323F0400399
:102DE800AB6121696368AA690B431343A269134362
:102DF800AB61D4E9022343EA02432B61D4E90931E8
:102E0800EA680B4322F4F8521343EB602046FFF7BD
:102E1800A1FF0028DCD1D4E90713AA690B4322F0EB
:102E28006042134362691343AB61FF236B62012362
:102E380084F82D300020CDE70120CBE700280040A2
:102E48000023092803D840EA0310C0B270470A38A3
:102E58000133C0B2F5E700002DE9F04790F82C30B7
:102E6800012B05464FF0020069D0012385F82C306C
:102E78004E4B85F82D00DE6806F44076B6F5807F67
:102E880078D04C69087891F8019091F802A091F8EF
:102E98002470002A55D19B6913F0400308BFCB70FA
:102EA800FFF7CEFF80464846FFF7CAFF0246504666
:102EB800FFF7C6FF81463846FFF7C2FF0B6ACF7897
:102EC800234343EA875343EA090343EA084343EAAF
:102ED800022343EA0063354ACA20506253205062F5
:102EE8008C6A8869B4F5807F946945D124F4885444
:102EF80094610124D465B6F5807F09BFCB6913645A
:102F08000343536418BF5064284B4A681A672A6BF6
:102F180042F001022A639A6942F488529A61244A6B
:102F2800D2F8803043F40033C2F880301F4BFF22C0
:102F38005A620020012385F82D3085F82C00BDE861
:102F4800F087B4F1803F07D0B4F5000F04D09B6937
:102F580013F0400308BFCB700B6ACA781C4344EADD
:102F68000A0444EA004343EA092343EA825343EA52
:102F78000763B0E70023AEE724F408549461022401
:102F8800D465B6F5807F09BFCB6993640343D364E6
:102F980018BFD064054B4A685A672A6B42F0020290
:102FA8002A639A6942F40852B8E700BF0028004033
:102FB8000008005890F82C20012A03464FF0020020
:102FC80012D00A4A83F82D00CA2151625321516256
:102FD800916941F020019161FF2151620020012295
:102FE80083F82D2083F82C00704700BF002800408C
:102FF80090F82C20012A03464FF0020019D00D4A00
:1030080083F82D00CA2151625321516291690A48FF
:1030180041F080019161D0F8801041F48021C0F81E
:103028008010FF2151620020012283F82D2083F8AF
:103038002C0070470028004000080058064B5A6DC5
:10304800520610B5044603D54022DA65FDF7B8FEEE
:10305800012384F82D3010BD0028004070478900F6
:1030680001F1804101F531410A607047890001F1A1
:10307800804101F53141086870470000034AD2F8E1
:10308800903043F40043C2F8903070470004005871
:10309800034AD2F8903023F40043C2F890307047C6
:1030A80000040058074B1A6822F040021A6040F4E6
:1030B80041704FF4B85218605A601A6842F04002E2
:1030C8001A6070470000015837B5054600284ED0F1
:1030D800837903F0FF046BB1032C0BD0254B4FF41D
:1030E80000629A612868FFF7DDFF002401232B7135
:1030F800AC602FE000236B712846FDF7C9FC1E4A1F
:10310800D2F8903043F48053C2F89030002CE5D1C7
:1031180002234FF0B042AB71D2F8943023F400434D
:10312800C2F89430154B1B681C214B43DB0C6421FF
:103138004B430193019B93B90124AC60FFF79EFFB9
:103148000C4B9A6842F400629A604FF400629A61EC
:10315800002CC7D00123AB71204603B030BD019BC2
:10316800013B0193D2F894305B04E3D4E6E70124F1
:10317800F2E700BF000400580008005800000020D3
:1031880037B5174D2B6802461C204343DB0C6420DF
:10319800434314480193019B93B901209060114C5B
:1031A80021732B681C214B43DB0C64214B43019397
:1031B800019B6BB9012090600A4BDB6803B030BDFE
:1031C800019B013B019383689C07E4D50020E6E757
:1031D800019B013B0193A368DB07E9D5ECE700BF3E
:1031E800000000200000015837B5184D2B68024632
:1031F8001C204343DB0C6420434315480193019B87
:10320800A3B901209060124CFF2323732B681C255F
:103218006B43DB0C64256B430193019B73B901205D
:1032280090600B4BDB680B7003B030BD019B013B1A
:10323800019383689C07E2D50020E4E7019B013BEA
:103248000193A368DB07E8D5EBE700BF0000002087
:10325800000001580E4B0F491B681822534382B0D7
:103268001B0D6422534301934B69019AC3F38003F6
:1032780022B902238360012002B07047019A013A03
:1032880001924A69920701D5002BEDD10020F3E79E
:10329800000000200004005807B50379012B0FD166
:1032A8000A4B1B68182253431B0C0193FFF7F0FECF
:1032B800019B013B0193019B002BF9D1FFF7DEFE37
:1032C80003B05DF804EBFFF7C5BF00BF00000020A6
:1032D800F8B51E468379012B154604460F46DAB227
:1032E8002DD14379012B2AD0022342718371FFF734
:1032F800D3FF0D212046FFF7CBFEFFF741FF390A28
:103308002046FFF73DFFF9B22046FFF739FF2E446C
:10331800B5420ED12046FFF7B1FEFFF79BFFA0682C
:1033280001230038A3714FF0000318BF0120637117
:10333800F8BD15F8011B2046FFF722FFE8E7022039
:10334800F6E7F8B51E468379012B154604460F4665
:10335800DAB22FD14379012B2CD04271FFF79CFFB1
:103368001D212046FFF794FEFFF70AFF390A204681
:10337800FFF706FFF9B22046FFF702FF00212046BB
:10338800FFF7FEFE2E44B5420ED12046FFF776FE2B
:10339800FFF760FFA06801230038A3714FF0000316
:1033A80018BF01206371F8BD29462046FFF71CFFAE
:1033B8000135E8E70220F6E7F8B51F468379012BC7
:1033C800154604460E46DAB22CD14379012B29D092
:1033D8004271FFF761FF06F0EF03A3F18402534245
:1033E8005341237131462046FFF752FEFFF7C8FECE
:1033F8002F44AF4210D1FFF741FE842E02D0204661
:10340800FFF728FFA06801230038A3714FF00003DD
:1034180018BF01206371F8BD15F8011B2046FFF79E
:10342800AFFEE6E70220F6E7F8B51E468379012BE2
:10343800154604460F46DAB227D14379012B24D02A
:103448004271FFF729FF39462046FFF721FEFFF7B3
:1034580097FE00212046FFF793FE2E44B5420ED179
:103468002046FFF70BFEFFF7F5FEA06801230038A2
:10347800A3714FF0000318BF01206371F8BD2946FE
:103488002046FFF7B1FE0135E8E70220F6E737B539
:103498000023ADF8043001AA022312210546FFF7E4
:1034A800C3FFBDF80440022364BA01AAA4B21946B6
:1034B8002846FFF781FFE20702D5284602F0DCFF25
:1034C800A30702D5284602F0DDFF600702D528468B
:1034D80003F002F8210702D5284603F003F8E206B4
:1034E80002D5284603F004F8A30602D5284602F0C0
:1034F800EDFF600602D5284602F0CAFF210606D570
:1035080014F4807118BF0121284602F0C7FFA205F4
:1035180002D5284602F0D2FF630402D5284602F0FD
:10352800EDFF03B030BDF8B51E468379012B154673
:1035380004460F46DAB227D14379012B24D04271D1
:10354800FFF7AAFE0E212046FFF7A2FDFFF718FE9F
:1035580039462046FFF714FE2E44B5420ED12046C8
:10356800FFF78CFDFFF776FEA06801230038A371F2
:103578004FF0000318BF01206371F8BD15F8011B57
:103588002046FFF7FDFDE8E70220F6E7F8B51E46FE
:103598008379012B154604460F46DAB22BD14379BD
:1035A800012B28D04271FFF777FE1E212046FFF736
:1035B8006FFDFFF7E5FD39462046FFF7E1FD0021E5
:1035C8002046FFF7DDFD2E44B5420ED12046FFF719
:1035D80055FDFFF73FFEA06801230038A3714FF0A7
:1035E800000318BF01206371F8BD29462046FFF784
:1035F800FBFD0135E8E70220F6E7026852E8003FE4
:1036080023F0C00342E8003102680029F5D102F135
:10361800080353E8003F23F4000302F1080C4CE8C8
:1036280000310029F3D12023C0F88830704700000A
:1036380010B5026852E8003F23F4907342E8003165
:1036480002680029F5D10F4C02F1080353E8003F46
:10365800234002F1080C4CE800310029F4D1C36E74
:10366800012B07D152E8003F23F0100342E8003154
:103678000029F7D12023C0F88C300023C3664367A4
:1036880010BD00BFFEFFFFEFF8B504461346D4F89F
:103698008850202D32D1F1B1EAB1E06FA4F856205C
:1036A800A4F8542000262122C4F890602165C4F8AB
:1036B8008820226888B1124FC762124F0763124FE1
:1036C8002832C0E90D76FEF747FA30B11023C4F866
:1036D8009030C4F888500120F8BD236840221A624F
:1036E800226802F1080353E8003F43F0800302F127
:1036F800080141E800300028F3D1EDE70220EBE7AC
:10370800153700085D3700086937000808B5034613
:10371800806A1B681B6813F0200317D1A0F8563085
:10372800026802F1080353E8003F23F080030832DF
:1037380042E8003102680029F2D152E8003F43F024
:10374800400342E800310029F7D108BDFDF766FDC6
:10375800FBE7704708B5806AFFF7FBFF08BD7047B5
:10376800806A38B50468D0F88830D0F88C50A268E0
:10377800120606D5212B04D10023A0F85630FFF7F6
:103788003CFFA3685B0606D5222D04D10023A0F8D0
:103798005E30FFF74DFFD0F8903043F01003C0F8CB
:1037A8009030FFF7DCFF38BD08B5806A0023A0F829
:1037B8005E30A0F85630FFF7D2FF08BD7047000012
:1037C8000368D9691A682DE9F04140F60F063142BD
:1037D8009D68044610D18E0640F1978002F02006BD
:1037E80005F080573E4300F09080436F002B00F0B7
:1037F8008580BDE8F0411847AB4EAC482E401040DC
:10380800304300F08280CF0709D5D00507D50120C5
:103818001862D4F8900040F00100C4F890008F07B7
:1038280009D5E80707D502201862D4F8900040F0BF
:103838000400C4F890004F0709D5E80707D504200D
:103848001862D4F8900040F00200C4F890000F0706
:103858000BD502F02000304307D008201862D4F8B6
:10386800900040F00800C4F890000E050AD55001F9
:1038780008D54FF400601862D4F8903043F0200364
:10388800C4F89030D4F89030002B37D08B0609D587
:1038980002F0200205F080552A4303D0636F0BB174
:1038A800204698472668D4F89020B36802F028028A
:1038B80003F0400353EA0205204621D0FFF7B8FE83
:1038C800B3685F0617D5226802F1080353E8003F82
:1038D80023F04003083242E800310029F3D1D4F83C
:1038E800800040B1724B8363FEF7AFF930B1D4F872
:1038F8008000836B7DE72046FFF731FFBDE8F0814C
:10390800FFF72DFFC4F89050F8E7E06E012840F06B
:103918008980CE0640F18680D00640F1838010224F
:103928001A629A6851064BD5D4F8802011684A6803
:1039380092B2002AE2D0B4F85C009042DED9A4F832
:103948005E200A6892062FD453E8002F22F4807272
:1039580043E800210029F7D103F1080252E8002FBB
:1039680022F0010203F1080040E800210029F3D108
:1039780003F1080252E8002F22F0400203F1080088
:1039880040E800210029F3D12022C4F88C20E16608
:1039980053E8002F22F0100243E800210029F7D154
:1039A800D4F88000FEF71CF902232367B4F85E30D0
:1039B800B4F85C10C91A89B22046FFF7FFFE9DE7EC
:1039C800B4F85E20B4F85E00B4F85C1080B292B22D
:1039D800002893D0891A89B200298FD053E8002F84
:1039E80022F4907243E800200028F7D1314D03F10A
:1039F800080252E8002F2A4003F1080646E8002092
:103A08000028F4D12022C4F88C206067E06653E8CF
:103A1800002F22F0100243E800200028F7D10223EB
:103A28002367C9E7CF0209D56E0207D54FF4801284
:103A380020461A62BDE8F04100F0A0BD08060BD58B
:103A480002F0800005F40005284305D0A36F002B81
:103A58003FF454AF2046CCE64F0611D556060FD595
:103A680053E8002F22F0400243E800210029F7D153
:103A78002023C4F88830A1672046FDF7CFFB3DE737
:103A88000D0206D5500004D52046BDE8F04100F0EF
:103A980077BDCB017FF532AF002ABFF62FAF2046A6
:103AA800BDE8F04100F06BBD0100001020010004EA
:103AB800B1370008FEFFFFEFD0F88C20B0F8601097
:103AC800222A08B5036855D15B6A826D0B401370D2
:103AD800836D01338365B0F85E30013B9BB2A0F87B
:103AE8005E30B0F85E309BB2002B42D1026852E8DB
:103AF800003F23F4907342E8003103680029F5D1B0
:103B080003F1080252E8002F22F0010203F1080C29
:103B18004CE800210029F3D12022C0F88C20184A53
:103B280041679342016705D1C26E012A0ED0FDF7A5
:103B380083FB1EE05A681102F6D553E8002F22F0E5
:103B4800806243E800210029F7D1EDE70022C26630
:103B580053E8002F22F0100243E800210029F7D192
:103B6800DA69B0F85C10D20644BF10221A62FFF777
:103B780025FE08BD9A6942F008029A61F9E700BF7C
:103B880000800040D0F88C20B0F86010222A08B5D8
:103B9800036852D15A6A1140826D22F8021B82656D
:103BA800B0F85E20013A92B2A0F85E20B0F85E202C
:103BB80092B2002A40D153E8002F22F4907243E8D1
:103BC80000210029F7D103F1080252E8002F22F062
:103BD800010203F1080C4CE800210029F3D120224E
:103BE800C0F88C20174A41679342016705D1C26E1D
:103BF800012A0ED0FDF720FB1EE05A681102F6D507
:103C080053E8002F22F0806243E800210029F7D111
:103C1800EDE70022C26653E8002F22F0100243E8C5
:103C280000210029F7D1DA69B0F85C10D20644BF48
:103C380010221A62FFF7C2FD08BD9A6942F0080215
:103C48009A61F9E7008000402DE9F84F0368B0F861
:103C58006060D3F81CB01F689D68D0F88C20222AB9
:103C6800044640F0B980B0F8683043B1DFF8749189
:103C7800DFF874A14FF000081BF0200F20D1B4F832
:103C88005E309BB2D3B1B4F868209A4216D9226844
:103C980002F1080353E8003F23F08053083242E85A
:103CA800003122680029F2D1504B636752E8003F87
:103CB80043F0200342E800310029F7D1BDE8F88F2E
:103CC8002368A26D5B6A33401370A36D0133A3654B
:103CD800B4F85E30013B9BB2A4F85E302368D3F899
:103CE8001CB01BF0070F2ED01BF0010F09D0F905EF
:103CF80007D501221A62D4F8902042F00102C4F8D4
:103D080090201BF0020F09D0EA0707D502221A6299
:103D1800D4F8902042F00402C4F890201BF0040F5D
:103D280009D0E80707D504221A62D4F8903043F086
:103D38000203C4F89030D4F8903023B12046FFF73E
:103D48000EFDC4F89080B4F85E309BB2002B93D17E
:103D5800226852E8003F23F4807342E80031236868
:103D68000029F5D103F1080252E8002F02EA0902FE
:103D780003F1080040E800210029F3D1202253452F
:103D8800C4F88C20616721670AD05A68110207D5E8
:103D980053E8002F22F0806243E800210029F7D180
:103DA800E26E012A14D10022E26653E8002F22F0C5
:103DB800100243E800210029F7D1DA69B4F85C1051
:103DC800D20644BF10221A622046FFF7F7FC53E7D9
:103DD8002046FDF731FA4FE79A6942F008029A61E6
:103DE8006CE700BFFEFFFFEF00800040C13A00080B
:103DF8002DE9F84F0368B0F86060D3F81CB01F686D
:103E08009D68D0F88C20222A044640F0B780B0F88C
:103E1800683043B1DFF87091DFF870A14FF0000807
:103E28001BF0200F20D1B4F85E309BB2D3B1B4F8A8
:103E380068209A4216D9226802F1080353E8003F25
:103E480023F08053083242E8003122680029F2D179
:103E58004F4B636752E8003F43F0200342E80031CC
:103E68000029F7D1BDE8F88F2368A26D596A31405F
:103E780022F8021BA265B4F85E20013A92B2A4F8B7
:103E88005E20D3F81CB01BF0070F2ED01BF0010FDB
:103E980009D0F90507D501221A62D4F8902042F01A
:103EA8000102C4F890201BF0020F09D0EA0707D5D9
:103EB80002221A62D4F8902042F00402C4F890203A
:103EC8001BF0040F09D0E80707D504221A62D4F8BA
:103ED800903043F00203C4F89030D4F8903023B106
:103EE8002046FFF73CFCC4F89080B4F85E309BB2E3
:103EF800002B95D1226852E8003F23F4807342E8F2
:103F0800003123680029F5D103F1080252E8002F97
:103F180002EA090203F1080040E800210029F3D170
:103F280020225345C4F88C20616721670AD05A685B
:103F3800110207D553E8002F22F0806243E80021E0
:103F48000029F7D1E26E012A14D10022E26653E873
:103F5800002F22F0100243E800210029F7D1DA6986
:103F6800B4F85C10D20644BF10221A622046FFF74C
:103F780025FC55E72046FDF75FF951E79A6942F0BD
:103F880008029A616EE700BFFEFFFFEF0080004065
:103F98008D3B000838B5044603682169A2681D688E
:103FA800C0690A4361690A437749024329400A43C1
:103FB8001A605A68E16822F440520A435A60734A08
:103FC800A16993421CBF226A11439A6822F06E428B
:103FD80022F430620A439A60DA6A616A22F00F02B8
:103FE8000A43DA626A4A934219D14FF0B043694AE8
:103FF800D3F8883003F0030343F44033934200F0CE
:10400800B480B3F1031F24D0013A934240F0B58045
:10401800B0F5004F40F08F80FEF7E6F86EE05E4A9C
:1040280093421CD14FF0B0435C49D3F8883003F079
:104038000C0343F440228A4200F0978006D8002BF4
:104048007CD0574B9A42E3D0012026E0B2F10C1FF6
:10405800FAD1B0F5004F53D04FF4004075E04B4A09
:104068009342F1D14FF0B043D3F8883003F4406362
:10407800B3F5006F18D006D85BB1B3F5806FE3D104
:10408800FEF7B2F807E0B3F5406FDDD14FF400401A
:104098000BE0FEF7BBFC40B900204FF00113A3660C
:1040A8000023C4E91D3338BD3E4865683E4B626A4B
:1040B80005EB450133F81220B0FBF2F39942C3D85F
:1040C800B3EB053FC0D800231946FCF759F809029D
:1040D80041EA10616B080002C0182A464FF000033D
:1040E80041F10001FCF74CF8304BA0F540729A42C0
:1040F800AAD82368D860CFE7FEF788FC0028CBD081
:104108006168294B626A33F81220B0FBF2F24B085F
:1041180003EB42034FF6EF72B3FBF1F3A3F1100187
:10412800914291D823F00F02216892B2C3F342035F
:104138001343CB60B0E7FEF757F804E0B0F5004F43
:10414800DAD0FEF763FC0028A6D06368616A164AD5
:1041580032F81120B0FBF2F000EB5300B0FBF3F0A3
:104168004FF6EF73A0F11002C1E7B0F5004F0D480C
:10417800EBD1C5E7FEF75AFCC0E7B0F5004FF9D020
:10418800FEF754FCDFE700BFF369FFCF0080004073
:1041980000380140020003000044004008000C0001
:1041A80004000C000024F400307A0008FFFC0F0023
:1041B800836ADA0710B506D50168C46A4A6822F42A
:1041C800003222434A609C0706D50168046B4A689E
:1041D80022F4803222434A60590706D50168446BAD
:1041E8004A6822F4802222434A601A0706D50168E9
:1041F800846B4A6822F4004222434A60DC0606D5F2
:104208000168C46B8A6822F4805222438A60990646
:1042180006D50168046C8A6822F4005222438A6039
:104228005A060FD50168446C4A6822F4801222436A
:10423800B4F5801F4A6005D14A68846C22F4C00234
:1042480022434A601B0606D50268C16C536823F4F2
:1042580000230B43536010BD2DE9F843DDF820908F
:1042680005460F46164698462A68D36937EA030377
:104278000CBF01230023B34201D0002029E0B9F18B
:10428800FF3FF2D0FCF776FCA0EB080048452C680D
:1042980002D8B9F1000F1ED154E8003F23F4D073BF
:1042A80044E80032002AF7D104F1080353E8003F3C
:1042B80023F0010304F1080141E80032002AF3D198
:1042C8002023C5F88830C5F88C30002385F8843061
:1042D8000320BDE8F88323685A07C5D5E3691B05A1
:1042E800C2D54FF40063236254E8003F23F4D0732F
:1042F80044E80032002AF7D104F1080353E8003FEC
:1043080023F0010304F1080141E80032002AF3D147
:104318002023C5F88830C5F88C30C5F89030D4E72C
:1043280073B504460026C0F89060FCF723FC2368A8
:104338001B681A07054619D423681B685B070AD54A
:104348006FF07E43009300222B464FF480012046F5
:10435800FFF782FFB0B900202023C4F8883084F822
:104368008400C4F88C30E06620670CE06FF07E4370
:104378000093324603464FF400112046FFF76CFFC6
:104388000028D9D0032002B070BD10B5044650B340
:10439800D0F888301BB980F88430FCF785FD226896
:1043A8002423C4F88830136823F0010313602046DF
:1043B800FFF7F0FD012816D0A36A13B12046FFF7D6
:1043C800F7FE23685A6822F490425A609A6822F0ED
:1043D8002A029A601A6842F0010220461A60BDE873
:1043E8001040FFF79DBF012010BD000030B581656A
:1043F8008168A0F85C200023B1F5805FA0F85E20FA
:10440800436735D10369002B40F2FF1318BFFF2320
:10441800A0F860300023C0F890302223C0F88C3018
:10442800016801F1080353E8003F43F00103083134
:1044380041E800340368002CF2D1456E84680169B4
:10444800B5F1005F32D1B0F8685095422ED8B4F576
:10445800805F244A03D1244C002908BF22464267C2
:10446800B1B153E8002F42F4807243E80021F7E726
:1044780029B90369002B14BF7F23FF23C8E7B1F1D3
:10448800805FC5D10369002B14BF3F237F23BFE79B
:1044980003F1080252E8002F42F0805203F10800AD
:1044A80040E800210029F3D1002030BDB4F5805F39
:1044B8000E4A03D10E4C002908BF2246426741B17B
:1044C80053E8002F42F4907243E800210029F7D105
:1044D800EAE753E8002F42F0200243E800210029D0
:1044E800F7D1E1E7513C0008F93D0008C13A00085E
:1044F8008D3B0008D0F88C30202B30B415D1B9B1E1
:10450800B2B100230468C3660A4B9C420AD06368B0
:104518001B0207D554E8003F43F0806344E80035A8
:10452800002DF7D130BCFFF761BF022030BC7047C7
:104538000120FBE700800040436E30B52BB9012312
:10454800A0F86A30A0F8683030BD0368094D9A6851
:104558009968094C490FC2F342626B5C615CDB00ED
:10456800B3FBF1F3A0F86A30AB5CA25CDB00B3FBF1
:10457800F2F3E7E7507A0008487A00087047704776
:1045880070471FB504AB03E9060090F88430012B8F
:1045980004463AD0012380F884302423C0F88830B8
:1045A80003681A6822F001021A609A6822F440121D
:1045B8000A439A6071B95A68BDF80C009DF80E104C
:1045C80022F0100202435A605A6822F07F4242EAFF
:1045D80001625A601A6842F001021A60FCF7CAFACE
:1045E8006FF07E42034600924FF48001002220467D
:1045F800FFF732FE38B92023C4F88830002384F846
:10460800843004B010BD0320F8E70220F9E790F8E1
:104618008430012B0FD0012380F88430016851E8E1
:10462800002F42F0020241E80023002BF6D180F867
:104638008430184670470220704710B590F88430CF
:10464800012B044617D02423C0F8883003681A6861
:10465800196821F00101196042F000524FF0005131
:1046680041661A60FFF768FF2023C0F888300020F1
:1046780084F8840010BD0220FCE790F88430012BF8
:1046880014D002682423C0F888301168136823F016
:104698000103136021F000510023436611602022BA
:1046A800C0F8882080F88430184670470220704788
:1046B80070B590F88430012B044617D00568242380
:1046C800C0F888302E682B6823F001032B60AB6894
:1046D80023F060431943A960FFF72EFF20232E60C3
:1046E800C0F88830002084F8840070BD0220FCE700
:1046F80070B590F88430012B044617D00568242340
:10470800C0F888302E682B6823F001032B60AB6853
:1047180023F060631943A960FFF70EFF20232E6082
:10472800C0F88830002084F8840070BD0220FCE7BF
:104738002DE9F04186B000244FF0B0430594DA6CBF
:104748001A4D42F00402DA64DB6C039403F00403AC
:104758000093009B10270123CDE9017301A90323CE
:10476800284604934FF02008FDF70AFB01A92846C4
:104778000826CDF80480FDF703FB01A92846019619
:10478800FDF7FEFA224641462846FDF719FC224667
:1047980039462846FDF714FC284622463146FDF7DF
:1047A8000FFC204606B0BDE8F08100BF00080048B5
:1047B80008B5032812D8DFE800F002131A260022F1
:1047C80014480821FDF7FCFB002212481021FDF7D0
:1047D800F7FB00220F482021FDF7F2FB002008BD5F
:1047E80001220C480821FDF7EBFB0122EDE701222D
:1047F80008480821FDF7E4FB012206481021FDF7CF
:10480800DFFB0122E6E7012202480821FDF7D8FB79
:104818000022F2E700080048002070470120704796
:1048280001207047002814BF16200F207047012070
:1048380070470000034B1B6813B15B6803B118474E
:10484800704700BF90040020034B1B6813B1DB685E
:1048580003B11847704700BF90040020012070473B
:104868000120704701F01AB901F008B910B501F03C
:10487800EBFD0E21044640F61F1001F0FFF820461C
:10488800012101F0CBFDBDE8104001F0A9BA0000FC
:1048980070B50C4E01EB40030D46B3654FF6FF7142
:1048A800002304461A46084601F030FB96F85600E5
:1048B800002101F0B3FD29462046BDE8704001F013
:1048C80067BA00BF3404002010B5044601F07CFE2E
:1048D800012818D101F080FE34B11048214602F0B9
:1048E800D3FD0E4802F096FD0D4C002194F85600B9
:1048F800A16501F093FD63786BB16FF07F40BDE86F
:10490800104001F029BA002340F262211A460846F5
:1049180001F0FCFAE0E7A0688001F0E70404002059
:1049280034040020002001F097B9000008B501F018
:104938009FF80438C0B2032896BF024B0020185CC9
:1049480008BD00BFB67A000808B501F092FD033033
:1049580008BD01F021B901F0E1B808B501F0D8FCB3
:1049680008BD000038B50D46144601F035FB284651
:1049780001F06AFD0E21054640F61F1001F07EF891
:1049880028460121074D01F049FD01F029FA4FF4AD
:104998007A716143284602F077FD2846BDE8384021
:1049A80002F038BD1C04002001F016BB08B5084B06
:1049B800002193F8560001F031FD00234FF4C07137
:1049C8001A46084601F0A2FABDE8084001F0FCB911
:1049D8003404002010B5044601F0F6FD012818D172
:1049E80001F0FAFD34B11048214602F04DFD0E48A1
:1049F80002F010FD0D4C002194F85600A16501F05D
:104A08000DFD63786BB16FF07F40BDE8104001F099
:104A180059B9002340F262211A46084601F076FA95
:104A2800E0E7A0688001F0E70404002034040020D7
:104A380008B54FF0040001F0F5F8BDE80840022081
:104A4800FCF7A0B808B500231A461946184601F025
:104A58005DFABDE8084001F04BB900001D4B73B585
:104A68001D4D186000241D486C70C5E90144AC65F3
:104A780001F076FAAC8101F0E1F92146204601F017
:104A880029FC21460422012001F0DAFA144E154DC2
:104A98004FF6FF7123462246084601F037FAFFF722
:104AA800C7FF2246104B00944FF0FF31304602F00A
:104AB80005FC0E4B009422464FF0FF31284602F0C9
:104AC800FDFB304602F058FC284602B0BDE87040B5
:104AD80002F052BC9004002034040020695A0008F7
:104AE8001C040020040400203D4800085148000828
:104AF8000128084805D1084BC17719700E3001F01C
:104B080085BB437D012B03D1034B81751970F5E7F4
:104B1800704700BF34040020080000200D4B10B57A
:104B2800044618735873012000F016F85CB134215C
:104B38004FF4E86000F0A2FF4421BDE8104040F2C5
:104B4800417000F09BBF14214FF4E86000F096FF1D
:104B58002421F2E73404002038B5114C05462070B2
:104B680001F03FFD052D04D8DFE805F0090B031718
:104B78001709032001F04EFA0023637338BD0020A3
:104B8800F8E7012001F046FA207B637B8342F5D0E9
:104B98006073BDE83840FFF7C1BF0220EAE700BFF5
:104BA800340400202DE9F0431E4687B00023054653
:104BB800CDE901330C46174601F005FD032D5BD8FE
:104BC800DFE815F07A00C1000C010400A27C082A75
:104BD80069D8A16801A802F047F92168002962D0C4
:104BE80042F210729142E37C874D50D80322AA7397
:104BF80085F83820E96385F844304FF00208636887
:104C0800A17DDB002B820423AB74A37CDB00EB7457
:104C180002294FF000032B75637D02D0227D022A02
:104C280046D103F10F02D2B2012A01D9012B3AD1A0
:104C3800764B774A196803944FF0010903A88DF859
:104C4800149001F0BDFC70BB287685F81790687544
:104C5800FFF768FE4046FFF77FFF6E4801F06AFAEB
:104C68006D4801F0D3FA01A800F068FF208A00F02F
:104C780039FFA08900F07EFF384601F0E5FB624C61
:104C880084F8560001F0A4FC666000200DE04FF0A7
:104C98000008E963890885F80E8085F8388085F86A
:104CA80044302964ABE74FF0FF3007B0BDE8F0832C
:104CB800EB7529766A75CBE72368002BF3D0A27CC5
:104CC800082AF0D8504DA16801A802F0CDF80023B9
:104CD80085F838302268EA63E27C85F84420A269C6
:104CE800AB732A646268D2002A820422AA74A27C66
:104CF8002B75D200EA74A27D022A02D0237D022BF2
:104D08001CD1627D02F10F03DBB2012B01D9012A0C
:104D1800C9D13E4B3E4A196803944FF0010803A8D5
:104D28008DF8148001F04CFC0028BCD1287685F859
:104D380017806875FFF7F6FD00208CE7617DE9753F
:104D48002A766B75F6E7304D012185F83810227800
:104D580085F85020637885F85130A37885F852306B
:104D6800E3788B4202D0022B03D03BB985F853304D
:104D780004E00B3A012A29D885F853104FF00108AE
:104D880085F80E80A388AB83A379AB77E37985F8A0
:104D98002030237A85F82130FFF7C4FD4046FFF71D
:104DA800DBFE1C4801F0C6F91B4801F02FFA95F804
:104DB8005130062B40F689000AD100F06FFE00F052
:104DC800FB0140F6890000F059FE55E70023CDE7C6
:104DD80000F064FE40F00401C9B2F2E72368013B29
:104DE800B3F57A7FBFF45FAF0320FFF7B5FE06483F
:104DF800022380F8383023688364162380F84C3007
:104E0800383001F097F937E7340400209004002087
:104E18001C0400206C04002042040020F0B51E464B
:104E280087B00023CDE90133144607460D4601F04B
:104E3800CAFB002C724C16BF0123002300266370A6
:104E480027B1012F7AD0002007B0F0BDAB68002B46
:104E580000F0D280EB68002B00F0CE80AA7F082AF1
:104E680000F2CA80296901A801F0FEFF286800380D
:104E780018BF012000F0BEFF84F83870AB68E36308
:104E880095F8203084F84430686801F03FFBA77338
:104E980084F84500EB68DB002382EB7FA374AB7FCB
:104EA800DB00E37495F82130237595F82230002B48
:104EB8003ED12A7D95F82410A275022995F8232061
:104EC80001D0022B36D102F10F03DBB2012B02D93C
:104ED800012A40F0918000238DF81430494B4A4A4A
:104EE8001968049503A801F06BFB002840F0848042
:104EF80001232076E3756075FFF714FD0020FFF7A6
:104F08002BFE424801F016F9414801F07FF901A84B
:104F180000F014FEA88B00F0E5FD288B00F02AFEB7
:104F28004FF4FA53AA687343B3FBF2F3A3608AE71A
:104F3800FF22BFE7E27521766375DDE72B8E002B34
:104F48005AD095F83230A86A012B0CBF2F7DFF2765
:104F5800003818BF012000F04DFFF0B200F056FFF6
:104F6800012184F8381095F82C2084F8502095F801
:104F78002D3084F8513095F82E3084F8523095F859
:104F88002F308B4202D0022B03D03BB984F8533028
:104F980004E00B3A012A27D884F853102B8EA383F8
:104FA80095F83230A3770126AB8E2384A673E77772
:104FB800FFF7B8FC3046FFF7CFFD144801F0BAF808
:104FC800134801F023F994F82130B34240F23670C7
:104FD8000CD100F063FD00F0FB0140F2367000F0E8
:104FE8004DFD4FF6FF73A1E70023CFE700F056FD14
:104FF80040F00401C9B2F0E74FF0FF3024E700BFEA
:105008003404002090040020040400206C040020D4
:10501800420400202DE9F04F85B082460E9DBDF870
:1050280040809DF844709DF84890019193461E4633
:1050380001F0C9FABAF1010F524C54D0BAF1040F79
:1050480000F09180BAF1000F3AD10B22304684F873
:10505800442084F838A0E56301F058FA4FEAC80301
:10506800B9F1000F238241F6040363820CBF0123C8
:10507800F223E37587F001070123237684F84500BE
:10508800C4F840B084F80EA084F814A06775FFF740
:1050980049FC5046FFF760FD04F1380001F04AF87A
:1050A80004F10E0001F0B2F8374A1068516802ABFB
:1050B80003C302A800F042FD40F2FF1000F012FD09
:1050C800019801F0C1F90E2184F8560040F61F102E
:1050D80000F0D4FC94F8560001F07AFA169B63604D
:1050E80005B0BDE8F08F294984F838A0EAB2895D97
:1050F80084F8502076BB0B3D012D8CBF002501257F
:10510800053A012A04D8B8F10C0F38BF4FF00C0843
:105118001F4B9DF83C201B7884F85350E3770125FA
:105128009DF8543084F8511084F8522084F82130C6
:10513800A573A4F81C80A77784F82090FFF7F2FBEA
:105148002846FFF709FD134800F0F4FF124801F064
:105158005DF8B5E7012E04D1A5F10C035D425D4170
:10516800CEE70025CCE75046FFF7F6FC022384F88B
:10517800383004F138001623A56484F84C3000F068
:10518800D9FF9DE734040020C8780008E87A0008B1
:10519800080000206C040020420400202DE9F04F94
:1051A80087B0DFF8B4B29DF864A09DF84C900293E4
:1051B80014469DF854309DF85020BDF8488003925D
:1051C80005468BF801A0BDF8446001930F4601F035
:1051D800FAF9BAF1000F18BF4FF00008DFF87CA207
:1051E800039AB9F1000F08BFFF22012D8AF80020A9
:1051F80000F0C880052D48D0002D40F0C08028461A
:1052080000F0F8FD0B2238468BF844208BF8385014
:10521800CBF83C4001F07AF9019B8BF8450041F648
:105228000402002BABF812209AF800208BF8162005
:105238000CBF0122F2228BF81720F600012289F018
:1052480001098BF818208BF80E50ABF810608BF81A
:1052580014508BF81590FFF765FB2846FFF77CFC88
:105268000BF1380000F066FF0BF10E0000F0CEFFE6
:105278007B490868496804AA03C204A800F05EFCD8
:1052880040F2FF1000F02EFC71E0012000F0B2FDAA
:1052980009224FF000098BF8442038464FF4487231
:1052A800CBF840208BF83890CBF83C4001F02EF931
:1052B8004FF48052ABF812209AF800208BF8450082
:1052C8008BF8162028460122F6008BF817208BF859
:1052D8000E90ABF81060ABF814908BF81890FFF7AD
:1052E8003BFC0BF1380000F025FF0BF10E0000F03D
:1052F8008DFF5B498868C96804AA03C204A800F046
:105308001DFC40F2FF1000F0EDFB40F6B80000F085
:10531800C5FB00F0EF0140F6B80000F0AFFB042138
:1053280040F6B90000F0AAFB40F69B0000F0B6FB7F
:1053380000F0E30141F0080140F69B0000F09EFBFD
:1053480040F2D16000F0AAFB40F01801C9B240F267
:10535800D16000F093FB40F2AC6000F09FFB00F0DE
:105368008F0141F0500140F2AC6000F087FB4FF430
:10537800FA5202FB08F2B2FBF4F2CBF8082007B0AD
:10538800BDE8F08F002000F035FD36498BF8385025
:10539800E2B2C95D8BF85020002F4DD10B3C012C97
:1053A8008CBF00240124053A012A02D80C2E38BFEC
:1053B8000C26029B9AF800208BF852308BF8534049
:1053C800019B8BF81F2001249DF860208BF8212079
:1053D8008BF851108BF820308BF80E40ABF81C601E
:1053E8008BF81E90FFF79EFA2046FFF7B5FB1E4884
:1053F80000F0A0FE1D4800F009FF5FFA88F000F0F9
:1054080005FD40F6A30000F049FB00EA040140F660
:10541800A30000F033FB9BF82120A24240F2367033
:1054280013D100F03BFB00F0FB0140F2367000F0B6
:1054380025FB4FF6FF72A0E7012F04D1A4F10C035E
:105448005C425C41AFE70024ADE700F027FB40F089
:105458000401C9B2E9E700BF3404002008000020B5
:10546800C8780008E87A00086C040020420400208C
:10547800F0B58BB00D46044617461E46FFF752FAA4
:105488000020FFF769FB204600F0A6FD0024012359
:10549800CDE9084303234FF4167229462046CDE987
:1054A8000644CDE90444CDE90244CDE9005323463E
:1054B800FFF774FE2046FFF78DFAFFF745FAFBF772
:1054C80061FB01F015FF0446204601F01BFFB042C6
:1054D80005D30124FFF726FA20460BB0F0BD00F0F3
:1054E80017FF8742F0DA0024F4E70000F7B500233D
:1054F800664D0C4640F201211A460646084600F061
:1055080005FD95F85600012100F088FF2B78012B46
:1055180040F6890013D195F85130062B0FD100F0D1
:10552800BDFA00F0FB0140F6890000F0A7FA2B78DD
:10553800042B6CD8DFE803F0524B527F090000F0CF
:10554800ADFA40F00401C9B2EDE7514A731E1046A6
:10555800C6F101074FF0000CF9188C426FDC0022ED
:10556800E7001346BA4271D19A0142EAC3125B01BD
:1055780083F020031343661C0355F6B20223454803
:10558800AB73AE7600F042FE0021F12000F076FA0F
:105598000021F02000F072FAAB6C642B70D17021FE
:1055A800F32000F06BFA1D21F22000F067FAE10009
:1055B8008C1CF420090A00F061FA04F0FE01F520C1
:1055C80000F05CFA32486FF07F4231461DE0EC771C
:1055D800304800F01BFE0022214615E000F0F4FFE1
:1055E8000128074625D121460DF10702304600F073
:1055F800F0FF0446A0B99DF807302648AB7500F0C7
:1056080005FE9DF807102246304600F051FB6968F8
:10561800214801F039FF204801F0FCFE002006E097
:105628001E4B3A460021022002F03CF8032003B04A
:10563800F0BDAC75CCE70223AB73AC76C8E713F8C2
:10564800011FC943197002F801CB85E7D1106FEA31
:10565800020C715C0CF0070C013241FA0CF101F0FC
:1056680001014FEAE20C4B40D14310F80CE001F085
:10567800070103FA01F141EA0E0100F80C1071E785
:10568800E121F32000F0FAF904218DE73404002029
:1056980094040020420400201C040020587A0008CA
:1056A800F0B5BDF814409DF818709DF81CE09DF801
:1056B800205040B1012814D0012200239818013845
:1056C800B0FBF2F0F0BD87F00107E30003EBC7037E
:1056D80018330EEB450503EBC5034FF47A714B43C2
:1056E800ECE7501F012803F1040302D80C2C38BF43
:1056F8000C24D1B9A2F10B0CBCF1010F8CBF4FF0F7
:10570800000C4FF0010C2801002F00EBCE000CBF5D
:1057180014250025A0EB8200062A4FEA82062844B9
:10572800A2F102070DD8354610E0012906D1A2F1F1
:105738000C00D0F1000C4CEB000CE4E74FF0000C2F
:10574800E1E70830BCF1000FEDD0BD000028ACBF88
:105758002E182E1C701E90FBF5F003FB0044094B1D
:10576800062A5A5C8CBF0C340E340A2A09D8A300C6
:1057780001334FF47A71BB404B43034951F822205F
:105788009CE7FFDEE87A0008BC7A000808B5094BF8
:10579800012193F8560000F041FE4FF4D7602D2107
:1057A80000F06CF900F021FBBDE80840024800F069
:1057B80069BA00BF34040020FFFF0F0073B59C4C8A
:1057C800B4F854300025202B8DF80350019500F0D3
:1057D8000A8114D8082B0DD87BB1013B072B0CD8B4
:1057E800DFE813F03D0052000B00BC000B000B007B
:1057F8000B00EC00102B00F0EF8002B070BDB3F589
:10580800807F00F08B8011D8402B00F0FF80802B28
:10581800F3D1284600F020FA864B1B68002BECD009
:105828009B69002BE9D028469847E6E7B3F5007F47
:10583800E3D1814B01222946022001F033FF00F019
:1058480017F9042878D17D4801F096FD284600F024
:1058580003FA784B1B68002BCFD05B6810E07748C1
:1058680001F08AFD002000F0F7F900F0AFFE0128F2
:1058780001D100F0B4FE6F4B1B68002BBDD01B6834
:10588800002BBAD09847B8E76D4801F075FD6578E8
:1058980095B9284600F0E0F9294640F6021000F0D4
:1058A800EDF840F6441000F0F9F840F00201C9B2F2
:1058B80040F6441000F0E2F8FF220DF103016148C0
:1058C8005C4D00F055FD604800F06CFD2B68002B26
:1058D80093D09E68002E90D094F82430012B08D1E4
:1058E80094F9313094F930209DF803105548B047A9
:1058F80083E7E06B01A900F01DFE019B9DF80310F2
:1059080050484FF47A7203F5FA7393FBF2F32A685E
:105918005BB2956894F92920A8476EE7284600F0FD
:105928009BF9444B1B68002B3FF467AF9B69002B26
:105938003FF463AF012077E700F09AF805287FF479
:105948005CAF3F4801F018FD284600F085F9394B57
:105958001B68002B3FF451AFDB6891E700213B4BFC
:105968000122022001F09EFEA16D00293FF445AFFF
:10597800C1F3074140F6031000F080F894F859107D
:1059880040F6041000F07AF894F8581040F6051024
:1059980000F074F840F6021000F080F840F00101C1
:1059A800C9B240F6021000F069F8002340F2622103
:1059B8001A460846A36500F0A9FA1EE7244B0122FF
:1059C8000021022001F06EFE00F0FEFD01287FF4A8
:1059D80014AF00F005FE10E71E4B01220021022043
:1059E80001F060FE09E7164801F0C6FC607808B9C6
:1059F80000F032F90F4B1B68002B3FF4FEAEDB685A
:105A0800002B3FF4FAAE9847134BE6E7134B0122FD
:105A18002946022001F046FE607808B900F01CF91A
:105A2800044B1B68002B3FF4E8AE1B6928E700BF56
:105A380034040020900400206D7A00081C04002023
:105A4800040400209404002058040020817A0008EF
:105A58008A7A0008947A00089D7A0008A67A0008D5
:105A6800024BA3F85400FFF7A9BE00BF340400207E
:105A7800014B1878704700BFA205002007B5012325
:105A88008DF807100DF1070201460348FDF720FCC9
:105A980003B05DF804FB00BF3401002007B5012303
:105AA80001460DF107020448FDF74BFC9DF807007D
:105AB80003B05DF804FB00BF3401002010B50446B4
:105AC80001F078F901280CD140F62310FFF7E6FF22
